:020000040800F2
:1000000000500020990100081D0200081D02000890
:100010001D0200081D0200081D020008000000006B
:100020000000000000000000000000001D020008A9
:100030001D020008000000001D0200081D0200084B
:100040001D0200081D0200081D0200081D02000814
:100050001D0200081D0200081D0200081D02000804
:100060001D0200081D0200081D0200081D020008F4
:100070001D0200081D0200081D0200081D020008E4
:100080001D0200081D0200081D0200081D020008D4
:100090001D0200081D0200081D0200081D020008C4
:1000A0001D0200081D0200081D0200081D020008B4
:1000B0001D0200081D0200081D0200081D020008A4
:1000C0001D0200081D0200081D0200081D02000894
:1000D0001D0200081D0200081D0200081D02000884
:1000E0001D0200081D0200081D02000880B483B034
:1000F00000AF0B4BDB680A4A83F40053D360002344
:100100007B6002E07B6801337B607B68B3F5FA7F3C
:10011000F8DB00BF00BF0C37BD4680BC704700BF96
:100120000010014080B400AF074B5B68064A23F41F
:1001300070035360044B5B68034A43F440135360FD
:1001400000BFBD4680BC70470010014080B400AFC6
:10015000094B0A4A1A60084B094A5A60064B142296
:100160005A61054B10229A61034B4FF0E0525A62DC
:1001700000BFBD4680BC704700100240837D030372
:10018000FAFF5D0780B500AFFFF7E0FFFFF7CAFF9A
:10019000FFF7ACFFFCE7000080B586B000AF1A4A5D
:1001A0001A4BD31A7B60194B7B61194B3B610023BF
:1001B000FB600AE03A69531C3B617B69591C796119
:1001C00012781A70FB680133FB60FA687B689A4208
:1001D000F0D3104A104BD31A7B600F4B7B61002386
:1001E000BB6007E07B695A1C7A6100221A70BB6809
:1001F0000133BB60BA687B689A42F3D3FFF7C2FF52
:1002000000BF1837BD4680BD000000200000002060
:1002100024020008000000200000002080B400AF8D
:04022000FEE700BF36
:040000050800019955
:00000001FF
