:020000040800F2
:1000000000500020C1010008450200084502000818
:1000100045020008450200084502000800000000F3
:100020000000000000000000000000004502000881
:1000300045020008000000004502000845020008D3
:100040004502000845020008450200084502000874
:100050004502000845020008450200084502000864
:100060004502000845020008450200084502000854
:100070004502000845020008450200084502000844
:100080004502000845020008450200084502000834
:100090004502000845020008450200084502000824
:1000A0004502000845020008450200084502000814
:1000B0004502000845020008450200084502000804
:1000C00045020008450200084502000845020008F4
:1000D00045020008450200084502000845020008E4
:1000E00045020008450200084502000880B400AF40
:1000F000094B1B681A68084B1B6822F470021A60CF
:10010000054B1B681A68044B1B6842F440121A60C6
:1001100000BFBD4680BC70470400002080B483B09F
:1001200000AF0C4B1B681A680A4B1B6882F4005224
:100130001A6000237B6002E07B6801337B607B6890
:10014000B3F5FA7FF8DB00BF00BF0C37BD4680BCBB
:10015000704700BF0C00002080B400AF0C4B1B6840
:100160000C4A1A600C4B1B680C4A1A600C4B1B683B
:1001700014221A600B4B1B6810221A600A4B1B6872
:100180004FF0E0521A6000BFBD4680BC704700BF10
:100190001C000020837D030320000020FAFF5D0780
:1001A00030000020340000204000002080B500AF67
:1001B000FFF7D2FFFFF79AFFFFF7B0FFFCE7000061
:1001C00080B586B000AF1A4A1A4BD31A7B60194B20
:1001D0007B61194B3B610023FB600AE03A69531CC9
:1001E0003B617B69591C796112781A70FB68013395
:1001F000FB60FA687B689A42F0D3104A104BD31A1E
:100200007B600F4B7B610023BB6007E07B695A1C5E
:100210007A6100221A70BB680133BB60BA687B68E0
:100220009A42F3D3FFF7C2FF00BF1837BD4680BD27
:1002300044000020000000204C0200084400002080
:0C0240004400002080B400AFFEE700BFC7
:10024C000010014004100140081001400C10014046
:10025C001010014014100140181001400010024011
:10026C0004100240081002400C1002401010024012
:10027C0014100240181002401C10024020100240C2
:04028C0024100240F8
:04000005080001C12D
:00000001FF
